:1000000019C033C032C031C030C02FC02EC02DC087
:100010002CC02BC02AC029C028C027C026C025C09C
:1000200024C023C022C048656C6C6F20507974686E
:100030006F6E210011241FBECFE5D4E0DEBFCDBF1F
:1000400010E0A0E6B0E0EAEBF0E002C005900D920F
:10005000A036B107D9F710E0A0E6B0E001C01D92CC
:10006000A036B107E1F71AD026C0CACF5F9BFECFFA
:100070008CB108955D9BFECF8CB90895CF93DF932B
:10008000EC0104C02196FC018491F4DFCE01FE0155
:1000900024912223B9F7DF91CF91089510BC83E317
:1000A00089B9599888E18AB9E1DF8130E9F786E2B8
:0A00B00090E0E4DFF9CFF894FFCFF1
:00000001FF
